{
  "contractName": "EnergyQuota",
  "abi": [
    {
      "constant": false,
      "inputs": [
        {
          "name": "_quotaBought",
          "type": "int256"
        },
        {
          "name": "_client",
          "type": "string"
        }
      ],
      "name": "addClient",
      "outputs": [],
      "payable": false,
      "stateMutability": "nonpayable",
      "type": "function"
    },
    {
      "constant": true,
      "inputs": [
        {
          "name": "_client",
          "type": "string"
        }
      ],
      "name": "getQuotaBought",
      "outputs": [
        {
          "name": "_quotaBought",
          "type": "int256"
        }
      ],
      "payable": false,
      "stateMutability": "view",
      "type": "function"
    }
  ],
  "bytecode": "0x608060405234801561001057600080fd5b506102e5806100206000396000f3fe608060405234801561001057600080fd5b50600436106100365760003560e01c806339cf4ab41461003b578063700ab8e414610100575b600080fd5b6100fe6004803603604081101561005157600080fd5b81019080803590602001909291908035906020019064010000000081111561007857600080fd5b82018360208201111561008a57600080fd5b803590602001918460018302840111640100000000831117156100ac57600080fd5b91908080601f016020809104026020016040519081016040528093929190818152602001838380828437600081840152601f19601f8201169050808301925050505050505091929192905050506101cf565b005b6101b96004803603602081101561011657600080fd5b810190808035906020019064010000000081111561013357600080fd5b82018360208201111561014557600080fd5b8035906020019184600183028401116401000000008311171561016757600080fd5b91908080601f016020809104026020016040519081016040528093929190818152602001838380828437600081840152601f19601f820116905080830192505050505050509192919290505050610244565b6040518082815260200191505060405180910390f35b816000826040518082805190602001908083835b6020831061020657805182526020820191506020810190506020830392506101e3565b6001836020036101000a0380198251168184511680821785525050505050509050019150509081526020016040518091039020600001819055505050565b600080826040518082805190602001908083835b6020831061027b5780518252602082019150602081019050602083039250610258565b6001836020036101000a038019825116818451168082178552505050505050905001915050908152602001604051809103902060000154905091905056fea165627a7a7230582029d37889e1f4d1b3bfb4ea7879507462027dbc3eb1d5e2d2ed3909470898b1cb0029",
  "source": "pragma solidity >=0.4.22 <0.6.0;\n\ncontract EnergyQuota{\n    \n    struct Quota{\n        int quotaBought;\n    }\n    \n    mapping (string => Quota) clients;\n    \n    function addClient(int _quotaBought, string memory _client) public{\n        clients[_client].quotaBought = _quotaBought;\n    }\n    \n    function getQuotaBought(string memory _client) public view returns (int _quotaBought){\n        return clients[_client].quotaBought;\n    }\n}\n\ncontract EnergyConsumption{\n\n    \n    struct Client{\n        int energyConsumed;\n        int energyCredit;\n        int energyToBePaid;\n    }\n    \n    mapping (string => Client) clients;\n    \n     \n    function addClient(int _energyConsumed, string memory _client) public{\n        clients[_client].energyConsumed = _energyConsumed;\n        clients[_client].energyToBePaid = 0;\n        clients[_client].energyCredit = 0;\n    }\n    \n    function manageConsumption(string memory _client, address _contract) public{\n        int credit = EnergyQuota(_contract).getQuotaBought(_client) - clients[_client].energyConsumed;\n        int toBePaid = clients[_client].energyConsumed- EnergyQuota(_contract).getQuotaBought(_client);\n       \n        clients[_client].energyCredit = (credit > 0) ? credit : 0;\n        clients[_client].energyToBePaid = (toBePaid > 0) ? toBePaid : 0;\n    }\n    \n    function getEnergyConsumed(string memory _client) public view returns (int _energyConsumed){\n        return clients[_client].energyConsumed;\n    }\n    \n    function getEnergyCredit(string memory _client) public view returns (int _energyCredit){\n        return clients[_client].energyCredit;\n    }\n    \n    function getEnergyToBePaid(string memory _client) public view returns (int _energyToBePaid){\n        return clients[_client].energyToBePaid;\n    }   \n}",
  "sourcePath": "/home/garaujo/Desktop/blockChain/SolarBlockchain/contracts/energyQuota.sol",
  "compiler": {
    "name": "solc",
    "version": "0.5.8+commit.23d335f2.Emscripten.clang"
  },
  "schemaVersion": "3.0.11",
  "updatedAt": "2019-07-12T11:50:24.045Z",
  "devdoc": {
    "methods": {}
  },
  "userdoc": {
    "methods": {}
  }
}