{
  "contractName": "EnergyConsumption",
  "abi": [
    {
      "constant": false,
      "inputs": [
        {
          "name": "_energyConsumed",
          "type": "int256"
        },
        {
          "name": "_client",
          "type": "string"
        }
      ],
      "name": "addClient",
      "outputs": [],
      "payable": false,
      "stateMutability": "nonpayable",
      "type": "function"
    },
    {
      "constant": false,
      "inputs": [
        {
          "name": "_client",
          "type": "string"
        },
        {
          "name": "_contract",
          "type": "address"
        }
      ],
      "name": "manageConsumption",
      "outputs": [],
      "payable": false,
      "stateMutability": "nonpayable",
      "type": "function"
    },
    {
      "constant": true,
      "inputs": [
        {
          "name": "_client",
          "type": "string"
        }
      ],
      "name": "getEnergyConsumed",
      "outputs": [
        {
          "name": "_energyConsumed",
          "type": "int256"
        }
      ],
      "payable": false,
      "stateMutability": "view",
      "type": "function"
    },
    {
      "constant": true,
      "inputs": [
        {
          "name": "_client",
          "type": "string"
        }
      ],
      "name": "getEnergyCredit",
      "outputs": [
        {
          "name": "_energyCredit",
          "type": "int256"
        }
      ],
      "payable": false,
      "stateMutability": "view",
      "type": "function"
    },
    {
      "constant": true,
      "inputs": [
        {
          "name": "_client",
          "type": "string"
        }
      ],
      "name": "getEnergyToBePaid",
      "outputs": [
        {
          "name": "_energyToBePaid",
          "type": "int256"
        }
      ],
      "payable": false,
      "stateMutability": "view",
      "type": "function"
    }
  ],
  "bytecode": "0x608060405234801561001057600080fd5b50610b18806100206000396000f3fe608060405234801561001057600080fd5b50600436106100575760003560e01c8063099398c81461005c5780632ac7df2f1461012b57806339cf4ab4146101fa57806362b342ea146102bf57806391c101841461038e575b600080fd5b6101156004803603602081101561007257600080fd5b810190808035906020019064010000000081111561008f57600080fd5b8201836020820111156100a157600080fd5b803590602001918460018302840111640100000000831117156100c357600080fd5b91908080601f016020809104026020016040519081016040528093929190818152602001838380828437600081840152601f19601f820116905080830192505050505050509192919290505050610469565b6040518082815260200191505060405180910390f35b6101e46004803603602081101561014157600080fd5b810190808035906020019064010000000081111561015e57600080fd5b82018360208201111561017057600080fd5b8035906020019184600183028401116401000000008311171561019257600080fd5b91908080601f016020809104026020016040519081016040528093929190818152602001838380828437600081840152601f19601f8201169050808301925050505050505091929192905050506104de565b6040518082815260200191505060405180910390f35b6102bd6004803603604081101561021057600080fd5b81019080803590602001909291908035906020019064010000000081111561023757600080fd5b82018360208201111561024957600080fd5b8035906020019184600183028401116401000000008311171561026b57600080fd5b91908080601f016020809104026020016040519081016040528093929190818152602001838380828437600081840152601f19601f820116905080830192505050505050509192919290505050610553565b005b610378600480360360208110156102d557600080fd5b81019080803590602001906401000000008111156102f257600080fd5b82018360208201111561030457600080fd5b8035906020019184600183028401116401000000008311171561032657600080fd5b91908080601f016020809104026020016040519081016040528093929190818152602001838380828437600081840152601f19601f8201169050808301925050505050505091929192905050506106aa565b6040518082815260200191505060405180910390f35b610467600480360360408110156103a457600080fd5b81019080803590602001906401000000008111156103c157600080fd5b8201836020820111156103d357600080fd5b803590602001918460018302840111640100000000831117156103f557600080fd5b91908080601f016020809104026020016040519081016040528093929190818152602001838380828437600081840152601f19601f820116905080830192505050505050509192919290803573ffffffffffffffffffffffffffffffffffffffff16906020019092919050505061071f565b005b600080826040518082805190602001908083835b602083106104a0578051825260208201915060208101905060208303925061047d565b6001836020036101000a0380198251168184511680821785525050505050509050019150509081526020016040518091039020600201549050919050565b600080826040518082805190602001908083835b6020831061051557805182526020820191506020810190506020830392506104f2565b6001836020036101000a0380198251168184511680821785525050505050509050019150509081526020016040518091039020600001549050919050565b816000826040518082805190602001908083835b6020831061058a5780518252602082019150602081019050602083039250610567565b6001836020036101000a038019825116818451168082178552505050505050905001915050908152602001604051809103902060000181905550600080826040518082805190602001908083835b602083106105fb57805182526020820191506020810190506020830392506105d8565b6001836020036101000a038019825116818451168082178552505050505050905001915050908152602001604051809103902060020181905550600080826040518082805190602001908083835b6020831061066c5780518252602082019150602081019050602083039250610649565b6001836020036101000a0380198251168184511680821785525050505050509050019150509081526020016040518091039020600101819055505050565b600080826040518082805190602001908083835b602083106106e157805182526020820191506020810190506020830392506106be565b6001836020036101000a0380198251168184511680821785525050505050509050019150509081526020016040518091039020600101549050919050565b600080836040518082805190602001908083835b602083106107565780518252602082019150602081019050602083039250610733565b6001836020036101000a0380198251168184511680821785525050505050509050019150509081526020016040518091039020600001548273ffffffffffffffffffffffffffffffffffffffff1663700ab8e4856040518263ffffffff1660e01b81526004018080602001828103825283818151815260200191508051906020019080838360005b838110156107f95780820151818401526020810190506107de565b50505050905090810190601f1680156108265780820380516001836020036101000a031916815260200191505b509250505060206040518083038186803b15801561084357600080fd5b505afa158015610857573d6000803e3d6000fd5b505050506040513d602081101561086d57600080fd5b810190808051906020019092919050505003905060008273ffffffffffffffffffffffffffffffffffffffff1663700ab8e4856040518263ffffffff1660e01b81526004018080602001828103825283818151815260200191508051906020019080838360005b838110156108ef5780820151818401526020810190506108d4565b50505050905090810190601f16801561091c5780820380516001836020036101000a031916815260200191505b509250505060206040518083038186803b15801561093957600080fd5b505afa15801561094d573d6000803e3d6000fd5b505050506040513d602081101561096357600080fd5b81019080805190602001909291905050506000856040518082805190602001908083835b602083106109aa5780518252602082019150602081019050602083039250610987565b6001836020036101000a038019825116818451168082178552505050505050905001915050908152602001604051809103902060000154039050600082136109f35760006109f5565b815b6000856040518082805190602001908083835b60208310610a2b5780518252602082019150602081019050602083039250610a08565b6001836020036101000a03801982511681845116808217855250505050505090500191505090815260200160405180910390206001018190555060008113610a74576000610a76565b805b6000856040518082805190602001908083835b60208310610aac5780518252602082019150602081019050602083039250610a89565b6001836020036101000a0380198251168184511680821785525050505050509050019150509081526020016040518091039020600201819055505050505056fea165627a7a72305820b3c39347d48ebeb06e2da5b1e48e557c51e0e4c58ebcce049a4157c0864f028c0029",
  "source": "pragma solidity >=0.4.22 <0.6.0;\n\ncontract EnergyQuota{\n    \n    struct Quota{\n        int quotaBought;\n    }\n    \n    mapping (string => Quota) clients;\n    \n    function addClient(int _quotaBought, string memory _client) public{\n        clients[_client].quotaBought = _quotaBought;\n    }\n    \n    function getQuotaBought(string memory _client) public view returns (int _quotaBought){\n        return clients[_client].quotaBought;\n    }\n}\n\ncontract EnergyConsumption{\n\n    \n    struct Client{\n        int energyConsumed;\n        int energyCredit;\n        int energyToBePaid;\n    }\n    \n    mapping (string => Client) clients;\n    \n     \n    function addClient(int _energyConsumed, string memory _client) public{\n        clients[_client].energyConsumed = _energyConsumed;\n        clients[_client].energyToBePaid = 0;\n        clients[_client].energyCredit = 0;\n    }\n    \n    function manageConsumption(string memory _client, address _contract) public{\n        int credit = EnergyQuota(_contract).getQuotaBought(_client) - clients[_client].energyConsumed;\n        int toBePaid = clients[_client].energyConsumed- EnergyQuota(_contract).getQuotaBought(_client);\n       \n        clients[_client].energyCredit = (credit > 0) ? credit : 0;\n        clients[_client].energyToBePaid = (toBePaid > 0) ? toBePaid : 0;\n    }\n    \n    function getEnergyConsumed(string memory _client) public view returns (int _energyConsumed){\n        return clients[_client].energyConsumed;\n    }\n    \n    function getEnergyCredit(string memory _client) public view returns (int _energyCredit){\n        return clients[_client].energyCredit;\n    }\n    \n    function getEnergyToBePaid(string memory _client) public view returns (int _energyToBePaid){\n        return clients[_client].energyToBePaid;\n    }   \n}",
  "sourcePath": "/home/garaujo/Desktop/blockChain/SolarBlockchain/contracts/energyQuota.sol",
  "compiler": {
    "name": "solc",
    "version": "0.5.8+commit.23d335f2.Emscripten.clang"
  },
  "schemaVersion": "3.0.11",
  "updatedAt": "2019-07-12T11:50:24.051Z",
  "devdoc": {
    "methods": {}
  },
  "userdoc": {
    "methods": {}
  }
}