{
  "contractName": "EnergyConsumption",
  "abi": [
    {
      "constant": false,
      "inputs": [
        {
          "name": "_energyConsumed",
          "type": "int256"
        },
        {
          "name": "_client",
          "type": "address"
        }
      ],
      "name": "addClient",
      "outputs": [],
      "payable": false,
      "stateMutability": "nonpayable",
      "type": "function"
    },
    {
      "constant": false,
      "inputs": [
        {
          "name": "_client",
          "type": "address"
        },
        {
          "name": "_contract",
          "type": "address"
        }
      ],
      "name": "manageConsumption",
      "outputs": [],
      "payable": false,
      "stateMutability": "nonpayable",
      "type": "function"
    },
    {
      "constant": true,
      "inputs": [
        {
          "name": "_client",
          "type": "address"
        }
      ],
      "name": "getEnergyConsumed",
      "outputs": [
        {
          "name": "_energyConsumed",
          "type": "int256"
        }
      ],
      "payable": false,
      "stateMutability": "view",
      "type": "function"
    },
    {
      "constant": true,
      "inputs": [
        {
          "name": "_client",
          "type": "address"
        }
      ],
      "name": "getEnergyCredit",
      "outputs": [
        {
          "name": "_energyCredit",
          "type": "int256"
        }
      ],
      "payable": false,
      "stateMutability": "view",
      "type": "function"
    },
    {
      "constant": true,
      "inputs": [
        {
          "name": "_client",
          "type": "address"
        }
      ],
      "name": "getEnergyToBePaid",
      "outputs": [
        {
          "name": "_energyToBePaid",
          "type": "int256"
        }
      ],
      "payable": false,
      "stateMutability": "view",
      "type": "function"
    }
  ],
  "bytecode": "0x608060405234801561001057600080fd5b506106ab806100206000396000f3fe608060405234801561001057600080fd5b50600436106100575760003560e01c806313baf2d91461005c578063547af31c146100b4578063ca0c5cce1461010c578063e20e80a214610170578063ec820413146101c8575b600080fd5b61009e6004803603602081101561007257600080fd5b81019080803573ffffffffffffffffffffffffffffffffffffffff169060200190929190505050610216565b6040518082815260200191505060405180910390f35b6100f6600480360360208110156100ca57600080fd5b81019080803573ffffffffffffffffffffffffffffffffffffffff169060200190929190505050610261565b6040518082815260200191505060405180910390f35b61016e6004803603604081101561012257600080fd5b81019080803573ffffffffffffffffffffffffffffffffffffffff169060200190929190803573ffffffffffffffffffffffffffffffffffffffff1690602001909291905050506102ac565b005b6101b26004803603602081101561018657600080fd5b81019080803573ffffffffffffffffffffffffffffffffffffffff16906020019092919050505061055c565b6040518082815260200191505060405180910390f35b610214600480360360408110156101de57600080fd5b8101908080359060200190929190803573ffffffffffffffffffffffffffffffffffffffff1690602001909291905050506105a7565b005b60008060008373ffffffffffffffffffffffffffffffffffffffff1673ffffffffffffffffffffffffffffffffffffffff168152602001908152602001600020600101549050919050565b60008060008373ffffffffffffffffffffffffffffffffffffffff1673ffffffffffffffffffffffffffffffffffffffff168152602001908152602001600020600001549050919050565b60008060008473ffffffffffffffffffffffffffffffffffffffff1673ffffffffffffffffffffffffffffffffffffffff168152602001908152602001600020600001548273ffffffffffffffffffffffffffffffffffffffff1663a06ccdb1856040518263ffffffff1660e01b8152600401808273ffffffffffffffffffffffffffffffffffffffff1673ffffffffffffffffffffffffffffffffffffffff16815260200191505060206040518083038186803b15801561036d57600080fd5b505afa158015610381573d6000803e3d6000fd5b505050506040513d602081101561039757600080fd5b810190808051906020019092919050505003905060008273ffffffffffffffffffffffffffffffffffffffff1663a06ccdb1856040518263ffffffff1660e01b8152600401808273ffffffffffffffffffffffffffffffffffffffff1673ffffffffffffffffffffffffffffffffffffffff16815260200191505060206040518083038186803b15801561042a57600080fd5b505afa15801561043e573d6000803e3d6000fd5b505050506040513d602081101561045457600080fd5b81019080805190602001909291905050506000808673ffffffffffffffffffffffffffffffffffffffff1673ffffffffffffffffffffffffffffffffffffffff16815260200190815260200160002060000154039050600082136104b95760006104bb565b815b6000808673ffffffffffffffffffffffffffffffffffffffff1673ffffffffffffffffffffffffffffffffffffffff168152602001908152602001600020600101819055506000811361050f576000610511565b805b6000808673ffffffffffffffffffffffffffffffffffffffff1673ffffffffffffffffffffffffffffffffffffffff1681526020019081526020016000206002018190555050505050565b60008060008373ffffffffffffffffffffffffffffffffffffffff1673ffffffffffffffffffffffffffffffffffffffff168152602001908152602001600020600201549050919050565b816000808373ffffffffffffffffffffffffffffffffffffffff1673ffffffffffffffffffffffffffffffffffffffff1681526020019081526020016000206000018190555060008060008373ffffffffffffffffffffffffffffffffffffffff1673ffffffffffffffffffffffffffffffffffffffff1681526020019081526020016000206002018190555060008060008373ffffffffffffffffffffffffffffffffffffffff1673ffffffffffffffffffffffffffffffffffffffff16815260200190815260200160002060010181905550505056fea165627a7a72305820abcff522ea46e40d2614eade5a1f5ba3d99c979188a1b89f8c718834fdbf72200029",
  "source": "pragma solidity >=0.4.22 <0.6.0;\n\ncontract EnergyQuota{\n    \n    struct Quota{\n        int quotaBought;\n    }\n    \n    mapping (address => Quota) clients;\n    \n    function addClient(int _quotaBought, address _client) public{\n        clients[_client].quotaBought = _quotaBought;\n    }\n    \n    function getQuotaBought(address _client) public view returns (int _quotaBought){\n        return clients[_client].quotaBought;\n    }\n}\n\ncontract EnergyConsumption{\n\n    \n    struct Client{\n        int energyConsumed;\n        int energyCredit;\n        int energyToBePaid;\n    }\n    \n    mapping (address => Client) clients;\n    \n     \n    function addClient(int _energyConsumed, address _client) public{\n        clients[_client].energyConsumed = _energyConsumed;\n        clients[_client].energyToBePaid = 0;\n        clients[_client].energyCredit = 0;\n    }\n    \n    function manageConsumption(address _client, address _contract) public{\n        int credit = EnergyQuota(_contract).getQuotaBought(_client) - clients[_client].energyConsumed;\n        int toBePaid = clients[_client].energyConsumed- EnergyQuota(_contract).getQuotaBought(_client);\n       \n        clients[_client].energyCredit = (credit > 0) ? credit : 0;\n        clients[_client].energyToBePaid = (toBePaid > 0) ? toBePaid : 0;\n    }\n    \n    function getEnergyConsumed(address _client) public view returns (int _energyConsumed){\n        return clients[_client].energyConsumed;\n    }\n    \n    function getEnergyCredit(address _client) public view returns (int _energyCredit){\n        return clients[_client].energyCredit;\n    }\n    \n    function getEnergyToBePaid(address _client) public view returns (int _energyToBePaid){\n        return clients[_client].energyToBePaid;\n    }   \n}",
  "sourcePath": "/home/garaujo/Desktop/blockChain/SolarBlockchain/contracts/energyQuota.sol",
  "compiler": {
    "name": "solc",
    "version": "0.5.8+commit.23d335f2.Emscripten.clang"
  },
  "schemaVersion": "3.0.11",
  "updatedAt": "2019-07-12T04:19:22.520Z",
  "devdoc": {
    "methods": {}
  },
  "userdoc": {
    "methods": {}
  }
}